{
  "_format": "hh-sol-artifact-1",
  "contractName": "June",
  "sourceName": "contracts/June.sol",
  "abi": [
    {
      "inputs": [],
      "stateMutability": "nonpayable",
      "type": "constructor"
    },
    {
      "inputs": [
        {
          "internalType": "string",
          "name": "name",
          "type": "string"
        },
        {
          "internalType": "string",
          "name": "course",
          "type": "string"
        },
        {
          "internalType": "string",
          "name": "usn",
          "type": "string"
        }
      ],
      "name": "addStudent",
      "outputs": [],
      "stateMutability": "payable",
      "type": "function"
    },
    {
      "inputs": [],
      "name": "getStudents",
      "outputs": [
        {
          "components": [
            {
              "internalType": "string",
              "name": "name",
              "type": "string"
            },
            {
              "internalType": "string",
              "name": "course",
              "type": "string"
            },
            {
              "internalType": "string",
              "name": "usn",
              "type": "string"
            },
            {
              "internalType": "uint256",
              "name": "completionTimestamp",
              "type": "uint256"
            },
            {
              "internalType": "address",
              "name": "studentAddress",
              "type": "address"
            }
          ],
          "internalType": "struct June.Student[]",
          "name": "",
          "type": "tuple[]"
        }
      ],
      "stateMutability": "view",
      "type": "function"
    }
  ],
  "bytecode": "0x608060405234801561001057600080fd5b5033600160006101000a81548173ffffffffffffffffffffffffffffffffffffffff021916908373ffffffffffffffffffffffffffffffffffffffff160217905550610bab806100616000396000f3fe6080604052600436106100295760003560e01c8063aa518b901461002e578063f1d064b31461004a575b600080fd5b610048600480360381019061004391906105af565b610075565b005b34801561005657600080fd5b5061005f6101e0565b60405161006c9190610875565b60405180910390f35b600160009054906101000a900473ffffffffffffffffffffffffffffffffffffffff1673ffffffffffffffffffffffffffffffffffffffff166108fc349081150290604051600060405180830381858888f193505050501580156100dd573d6000803e3d6000fd5b5060006040518060a001604052808581526020018481526020018381526020014281526020013373ffffffffffffffffffffffffffffffffffffffff168152509080600181540180825580915050600190039060005260206000209060050201600090919091909150600082015181600001908161015b9190610aa3565b5060208201518160010190816101719190610aa3565b5060408201518160020190816101879190610aa3565b506060820151816003015560808201518160040160006101000a81548173ffffffffffffffffffffffffffffffffffffffff021916908373ffffffffffffffffffffffffffffffffffffffff1602179055505050505050565b60606000805480602002602001604051908101604052809291908181526020016000905b8282101561044c57838290600052602060002090600502016040518060a0016040529081600082018054610237906108c6565b80601f0160208091040260200160405190810160405280929190818152602001828054610263906108c6565b80156102b05780601f10610285576101008083540402835291602001916102b0565b820191906000526020600020905b81548152906001019060200180831161029357829003601f168201915b505050505081526020016001820180546102c9906108c6565b80601f01602080910402602001604051908101604052809291908181526020018280546102f5906108c6565b80156103425780601f1061031757610100808354040283529160200191610342565b820191906000526020600020905b81548152906001019060200180831161032557829003601f168201915b5050505050815260200160028201805461035b906108c6565b80601f0160208091040260200160405190810160405280929190818152602001828054610387906108c6565b80156103d45780601f106103a9576101008083540402835291602001916103d4565b820191906000526020600020905b8154815290600101906020018083116103b757829003601f168201915b50505050508152602001600382015481526020016004820160009054906101000a900473ffffffffffffffffffffffffffffffffffffffff1673ffffffffffffffffffffffffffffffffffffffff1673ffffffffffffffffffffffffffffffffffffffff168152505081526020019060010190610204565b50505050905090565b6000604051905090565b600080fd5b600080fd5b600080fd5b600080fd5b6000601f19601f8301169050919050565b7f4e487b7100000000000000000000000000000000000000000000000000000000600052604160045260246000fd5b6104bc82610473565b810181811067ffffffffffffffff821117156104db576104da610484565b5b80604052505050565b60006104ee610455565b90506104fa82826104b3565b919050565b600067ffffffffffffffff82111561051a57610519610484565b5b61052382610473565b9050602081019050919050565b82818337600083830152505050565b600061055261054d846104ff565b6104e4565b90508281526020810184848401111561056e5761056d61046e565b5b610579848285610530565b509392505050565b600082601f83011261059657610595610469565b5b81356105a684826020860161053f565b91505092915050565b6000806000606084860312156105c8576105c761045f565b5b600084013567ffffffffffffffff8111156105e6576105e5610464565b5b6105f286828701610581565b935050602084013567ffffffffffffffff81111561061357610612610464565b5b61061f86828701610581565b925050604084013567ffffffffffffffff8111156106405761063f610464565b5b61064c86828701610581565b9150509250925092565b600081519050919050565b600082825260208201905092915050565b6000819050602082019050919050565b600081519050919050565b600082825260208201905092915050565b60005b838110156106bc5780820151818401526020810190506106a1565b60008484015250505050565b60006106d382610682565b6106dd818561068d565b93506106ed81856020860161069e565b6106f681610473565b840191505092915050565b6000819050919050565b61071481610701565b82525050565b600073ffffffffffffffffffffffffffffffffffffffff82169050919050565b60006107458261071a565b9050919050565b6107558161073a565b82525050565b600060a083016000830151848203600086015261077882826106c8565b9150506020830151848203602086015261079282826106c8565b915050604083015184820360408601526107ac82826106c8565b91505060608301516107c1606086018261070b565b5060808301516107d4608086018261074c565b508091505092915050565b60006107eb838361075b565b905092915050565b6000602082019050919050565b600061080b82610656565b6108158185610661565b93508360208202850161082785610672565b8060005b85811015610863578484038952815161084485826107df565b945061084f836107f3565b925060208a0199505060018101905061082b565b50829750879550505050505092915050565b6000602082019050818103600083015261088f8184610800565b905092915050565b7f4e487b7100000000000000000000000000000000000000000000000000000000600052602260045260246000fd5b600060028204905060018216806108de57607f821691505b6020821081036108f1576108f0610897565b5b50919050565b60008190508160005260206000209050919050565b60006020601f8301049050919050565b600082821b905092915050565b6000600883026109597fffffffffffffffffffffffffffffffffffffffffffffffffffffffffffffffff8261091c565b610963868361091c565b95508019841693508086168417925050509392505050565b6000819050919050565b60006109a061099b61099684610701565b61097b565b610701565b9050919050565b6000819050919050565b6109ba83610985565b6109ce6109c6826109a7565b848454610929565b825550505050565b600090565b6109e36109d6565b6109ee8184846109b1565b505050565b5b81811015610a1257610a076000826109db565b6001810190506109f4565b5050565b601f821115610a5757610a28816108f7565b610a318461090c565b81016020851015610a40578190505b610a54610a4c8561090c565b8301826109f3565b50505b505050565b600082821c905092915050565b6000610a7a60001984600802610a5c565b1980831691505092915050565b6000610a938383610a69565b9150826002028217905092915050565b610aac82610682565b67ffffffffffffffff811115610ac557610ac4610484565b5b610acf82546108c6565b610ada828285610a16565b600060209050601f831160018114610b0d5760008415610afb578287015190505b610b058582610a87565b865550610b6d565b601f198416610b1b866108f7565b60005b82811015610b4357848901518255600182019150602085019450602081019050610b1e565b86831015610b605784890151610b5c601f891682610a69565b8355505b6001600288020188555050505b50505050505056fea26469706673582212201d366d3b2cad2d192f5e1dc00802bee5a1135cd255d6722ad6d2149a4dafc08364736f6c63430008110033",
  "linkReferences": {},
  "deployedLinkReferences": {}
}